{
  "_format": "hh-sol-artifact-1",
  "contractName": "LoteriaApostas",
  "sourceName": "contracts/LoteriaApostas.sol",
  "abi": [
    {
      "inputs": [
        {
          "internalType": "address",
          "name": "vrfCoordinator",
          "type": "address"
        },
        {
          "internalType": "uint256",
          "name": "_subscriptionId",
          "type": "uint256"
        },
        {
          "internalType": "bytes32",
          "name": "_keyHash",
          "type": "bytes32"
        },
        {
          "internalType": "uint256",
          "name": "_precoBilhete",
          "type": "uint256"
        }
      ],
      "stateMutability": "nonpayable",
      "type": "constructor"
    },
    {
      "inputs": [
        {
          "internalType": "address",
          "name": "have",
          "type": "address"
        },
        {
          "internalType": "address",
          "name": "want",
          "type": "address"
        }
      ],
      "name": "OnlyCoordinatorCanFulfill",
      "type": "error"
    },
    {
      "inputs": [
        {
          "internalType": "address",
          "name": "have",
          "type": "address"
        },
        {
          "internalType": "address",
          "name": "owner",
          "type": "address"
        },
        {
          "internalType": "address",
          "name": "coordinator",
          "type": "address"
        }
      ],
      "name": "OnlyOwnerOrCoordinator",
      "type": "error"
    },
    {
      "inputs": [],
      "name": "ZeroAddress",
      "type": "error"
    },
    {
      "anonymous": false,
      "inputs": [
        {
          "indexed": true,
          "internalType": "address",
          "name": "jogador",
          "type": "address"
        }
      ],
      "name": "BilheteComprado",
      "type": "event"
    },
    {
      "anonymous": false,
      "inputs": [
        {
          "indexed": false,
          "internalType": "address",
          "name": "vrfCoordinator",
          "type": "address"
        }
      ],
      "name": "CoordinatorSet",
      "type": "event"
    },
    {
      "anonymous": false,
      "inputs": [
        {
          "indexed": true,
          "internalType": "address",
          "name": "from",
          "type": "address"
        },
        {
          "indexed": true,
          "internalType": "address",
          "name": "to",
          "type": "address"
        }
      ],
      "name": "OwnershipTransferRequested",
      "type": "event"
    },
    {
      "anonymous": false,
      "inputs": [
        {
          "indexed": true,
          "internalType": "address",
          "name": "from",
          "type": "address"
        },
        {
          "indexed": true,
          "internalType": "address",
          "name": "to",
          "type": "address"
        }
      ],
      "name": "OwnershipTransferred",
      "type": "event"
    },
    {
      "anonymous": false,
      "inputs": [
        {
          "indexed": true,
          "internalType": "uint256",
          "name": "requestId",
          "type": "uint256"
        }
      ],
      "name": "SorteioIniciado",
      "type": "event"
    },
    {
      "anonymous": false,
      "inputs": [
        {
          "indexed": true,
          "internalType": "address",
          "name": "vencedor",
          "type": "address"
        },
        {
          "indexed": false,
          "internalType": "uint256",
          "name": "premio",
          "type": "uint256"
        },
        {
          "indexed": false,
          "internalType": "uint256",
          "name": "requestId",
          "type": "uint256"
        }
      ],
      "name": "VencedorSorteado",
      "type": "event"
    },
    {
      "inputs": [],
      "name": "acceptOwnership",
      "outputs": [],
      "stateMutability": "nonpayable",
      "type": "function"
    },
    {
      "inputs": [],
      "name": "callbackGasLimit",
      "outputs": [
        {
          "internalType": "uint32",
          "name": "",
          "type": "uint32"
        }
      ],
      "stateMutability": "view",
      "type": "function"
    },
    {
      "inputs": [],
      "name": "comprarBilhete",
      "outputs": [],
      "stateMutability": "payable",
      "type": "function"
    },
    {
      "inputs": [],
      "name": "getJogadores",
      "outputs": [
        {
          "internalType": "address[]",
          "name": "",
          "type": "address[]"
        }
      ],
      "stateMutability": "view",
      "type": "function"
    },
    {
      "inputs": [],
      "name": "getSaldo",
      "outputs": [
        {
          "internalType": "uint256",
          "name": "",
          "type": "uint256"
        }
      ],
      "stateMutability": "view",
      "type": "function"
    },
    {
      "inputs": [
        {
          "internalType": "uint256",
          "name": "",
          "type": "uint256"
        }
      ],
      "name": "jogadores",
      "outputs": [
        {
          "internalType": "address",
          "name": "",
          "type": "address"
        }
      ],
      "stateMutability": "view",
      "type": "function"
    },
    {
      "inputs": [],
      "name": "keyHash",
      "outputs": [
        {
          "internalType": "bytes32",
          "name": "",
          "type": "bytes32"
        }
      ],
      "stateMutability": "view",
      "type": "function"
    },
    {
      "inputs": [],
      "name": "numWords",
      "outputs": [
        {
          "internalType": "uint32",
          "name": "",
          "type": "uint32"
        }
      ],
      "stateMutability": "view",
      "type": "function"
    },
    {
      "inputs": [],
      "name": "owner",
      "outputs": [
        {
          "internalType": "address",
          "name": "",
          "type": "address"
        }
      ],
      "stateMutability": "view",
      "type": "function"
    },
    {
      "inputs": [],
      "name": "precoBilhete",
      "outputs": [
        {
          "internalType": "uint256",
          "name": "",
          "type": "uint256"
        }
      ],
      "stateMutability": "view",
      "type": "function"
    },
    {
      "inputs": [
        {
          "internalType": "uint256",
          "name": "requestId",
          "type": "uint256"
        },
        {
          "internalType": "uint256[]",
          "name": "randomWords",
          "type": "uint256[]"
        }
      ],
      "name": "rawFulfillRandomWords",
      "outputs": [],
      "stateMutability": "nonpayable",
      "type": "function"
    },
    {
      "inputs": [],
      "name": "requestConfirmations",
      "outputs": [
        {
          "internalType": "uint16",
          "name": "",
          "type": "uint16"
        }
      ],
      "stateMutability": "view",
      "type": "function"
    },
    {
      "inputs": [],
      "name": "s_vrfCoordinator",
      "outputs": [
        {
          "internalType": "contract IVRFCoordinatorV2Plus",
          "name": "",
          "type": "address"
        }
      ],
      "stateMutability": "view",
      "type": "function"
    },
    {
      "inputs": [
        {
          "internalType": "address",
          "name": "_vrfCoordinator",
          "type": "address"
        }
      ],
      "name": "setCoordinator",
      "outputs": [],
      "stateMutability": "nonpayable",
      "type": "function"
    },
    {
      "inputs": [],
      "name": "sortearVencedor",
      "outputs": [
        {
          "internalType": "uint256",
          "name": "requestId",
          "type": "uint256"
        }
      ],
      "stateMutability": "nonpayable",
      "type": "function"
    },
    {
      "inputs": [],
      "name": "sorteioAberto",
      "outputs": [
        {
          "internalType": "bool",
          "name": "",
          "type": "bool"
        }
      ],
      "stateMutability": "view",
      "type": "function"
    },
    {
      "inputs": [],
      "name": "subscriptionId",
      "outputs": [
        {
          "internalType": "uint256",
          "name": "",
          "type": "uint256"
        }
      ],
      "stateMutability": "view",
      "type": "function"
    },
    {
      "inputs": [
        {
          "internalType": "address",
          "name": "to",
          "type": "address"
        }
      ],
      "name": "transferOwnership",
      "outputs": [],
      "stateMutability": "nonpayable",
      "type": "function"
    },
    {
      "inputs": [],
      "name": "ultimoGanhador",
      "outputs": [
        {
          "internalType": "address",
          "name": "",
          "type": "address"
        }
      ],
      "stateMutability": "view",
      "type": "function"
    },
    {
      "inputs": [],
      "name": "ultimoPremio",
      "outputs": [
        {
          "internalType": "uint256",
          "name": "",
          "type": "uint256"
        }
      ],
      "stateMutability": "view",
      "type": "function"
    },
    {
      "inputs": [],
      "name": "ultimoRequestId",
      "outputs": [
        {
          "internalType": "uint256",
          "name": "",
          "type": "uint256"
        }
      ],
      "stateMutability": "view",
      "type": "function"
    }
  ],
  "bytecode": "0x60806040523480156200001157600080fd5b50604051620025713803806200257183398181016040528101906200003791906200048d565b83338060008073ffffffffffffffffffffffffffffffffffffffff168273ffffffffffffffffffffffffffffffffffffffff1603620000ad576040517f08c379a0000000000000000000000000000000000000000000000000000000008152600401620000a49062000560565b60405180910390fd5b816000806101000a81548173ffffffffffffffffffffffffffffffffffffffff021916908373ffffffffffffffffffffffffffffffffffffffff160217905550600073ffffffffffffffffffffffffffffffffffffffff168173ffffffffffffffffffffffffffffffffffffffff1614620001345762000133816200027e60201b60201c565b5b505050600073ffffffffffffffffffffffffffffffffffffffff168173ffffffffffffffffffffffffffffffffffffffff16036200019e576040517fd92e233d00000000000000000000000000000000000000000000000000000000815260040160405180910390fd5b80600260006101000a81548173ffffffffffffffffffffffffffffffffffffffff021916908373ffffffffffffffffffffffffffffffffffffffff1602179055505082600481905550816003819055508060068190555062030d40600560006101000a81548163ffffffff021916908363ffffffff1602179055506003600560046101000a81548161ffff021916908361ffff1602179055506001600560066101000a81548163ffffffff021916908363ffffffff1602179055506001600860006101000a81548160ff02191690831515021790555050505050620005f4565b3373ffffffffffffffffffffffffffffffffffffffff168173ffffffffffffffffffffffffffffffffffffffff1603620002ef576040517f08c379a0000000000000000000000000000000000000000000000000000000008152600401620002e690620005d2565b60405180910390fd5b80600160006101000a81548173ffffffffffffffffffffffffffffffffffffffff021916908373ffffffffffffffffffffffffffffffffffffffff1602179055508073ffffffffffffffffffffffffffffffffffffffff1660008054906101000a900473ffffffffffffffffffffffffffffffffffffffff1673ffffffffffffffffffffffffffffffffffffffff167fed8889f560326eb138920d842192f0eb3dd22b4f139c87a2c57538e05bae127860405160405180910390a350565b600080fd5b600073ffffffffffffffffffffffffffffffffffffffff82169050919050565b6000620003df82620003b2565b9050919050565b620003f181620003d2565b8114620003fd57600080fd5b50565b6000815190506200041181620003e6565b92915050565b6000819050919050565b6200042c8162000417565b81146200043857600080fd5b50565b6000815190506200044c8162000421565b92915050565b6000819050919050565b620004678162000452565b81146200047357600080fd5b50565b60008151905062000487816200045c565b92915050565b60008060008060808587031215620004aa57620004a9620003ad565b5b6000620004ba8782880162000400565b9450506020620004cd878288016200043b565b9350506040620004e08782880162000476565b9250506060620004f3878288016200043b565b91505092959194509250565b600082825260208201905092915050565b7f43616e6e6f7420736574206f776e657220746f207a65726f0000000000000000600082015250565b600062000548601883620004ff565b9150620005558262000510565b602082019050919050565b600060208201905081810360008301526200057b8162000539565b9050919050565b7f43616e6e6f74207472616e7366657220746f2073656c66000000000000000000600082015250565b6000620005ba601783620004ff565b9150620005c78262000582565b602082019050919050565b60006020820190508181036000830152620005ed81620005ab565b9050919050565b611f6d80620006046000396000f3fe6080604052600436106101295760003560e01c80638da5cb5b116100ab578063ba2c09f81161006f578063ba2c09f81461037a578063cd1d6d44146103a5578063e0918e74146103d0578063e2eec9a7146103fb578063f2fde38b14610426578063fdcd07311461044f57610129565b80638da5cb5b146102a55780638ea98117146102d05780639dbd21b0146102f95780639eccacf614610324578063b0fb162f1461034f57610129565b806324f74697116100f257806324f74697146101e257806353b9074f1461020d57806361728f391461023857806379ba5097146102635780637ccfd7fc1461027a57610129565b806240b8371461012e57806306469a8d1461015957806309c1ba2e146101635780631fe543e31461018e57806323aaa4c5146101b7575b600080fd5b34801561013a57600080fd5b5061014361048c565b6040516101509190611416565b60405180910390f35b61016161051a565b005b34801561016f57600080fd5b50610178610655565b6040516101859190611451565b60405180910390f35b34801561019a57600080fd5b506101b560048036038101906101b09190611507565b61065b565b005b3480156101c357600080fd5b506101cc610721565b6040516101d99190611582565b60405180910390f35b3480156101ee57600080fd5b506101f7610734565b60405161020491906115bc565b60405180910390f35b34801561021957600080fd5b5061022261074a565b60405161022f9190611451565b60405180910390f35b34801561024457600080fd5b5061024d610750565b60405161025a91906115f0565b60405180910390f35b34801561026f57600080fd5b50610278610756565b005b34801561028657600080fd5b5061028f6108eb565b60405161029c91906115bc565b60405180910390f35b3480156102b157600080fd5b506102ba610901565b6040516102c7919061161a565b60405180910390f35b3480156102dc57600080fd5b506102f760048036038101906102f29190611661565b61092a565b005b34801561030557600080fd5b5061030e610b0b565b60405161031b9190611451565b60405180910390f35b34801561033057600080fd5b50610339610b11565b60405161034691906116ed565b60405180910390f35b34801561035b57600080fd5b50610364610b37565b6040516103719190611725565b60405180910390f35b34801561038657600080fd5b5061038f610b4b565b60405161039c919061161a565b60405180910390f35b3480156103b157600080fd5b506103ba610b71565b6040516103c79190611451565b60405180910390f35b3480156103dc57600080fd5b506103e5610b77565b6040516103f29190611451565b60405180910390f35b34801561040757600080fd5b50610410610d97565b60405161041d9190611451565b60405180910390f35b34801561043257600080fd5b5061044d60048036038101906104489190611661565b610d9f565b005b34801561045b57600080fd5b5061047660048036038101906104719190611740565b610db3565b604051610483919061161a565b60405180910390f35b6060600780548060200260200160405190810160405280929190818152602001828054801561051057602002820191906000526020600020905b8160009054906101000a900473ffffffffffffffffffffffffffffffffffffffff1673ffffffffffffffffffffffffffffffffffffffff16815260200190600101908083116104c6575b5050505050905090565b600860009054906101000a900460ff16610569576040517f08c379a0000000000000000000000000000000000000000000000000000000008152600401610560906117ca565b60405180910390fd5b60065434146105ad576040517f08c379a00000000000000000000000000000000000000000000000000000000081526004016105a490611836565b60405180910390fd5b6007339080600181540180825580915050600190039060005260206000200160009091909190916101000a81548173ffffffffffffffffffffffffffffffffffffffff021916908373ffffffffffffffffffffffffffffffffffffffff1602179055503373ffffffffffffffffffffffffffffffffffffffff167fe644a03c3c564ec9e825adadd36c476e0a10ba3e96ea01650aff1b553bbf34e360405160405180910390a2565b60045481565b600260009054906101000a900473ffffffffffffffffffffffffffffffffffffffff1673ffffffffffffffffffffffffffffffffffffffff163373ffffffffffffffffffffffffffffffffffffffff16146107115733600260009054906101000a900473ffffffffffffffffffffffffffffffffffffffff166040517f1cf993f4000000000000000000000000000000000000000000000000000000008152600401610708929190611856565b60405180910390fd5b61071c838383610df2565b505050565b600860009054906101000a900460ff1681565b600560009054906101000a900463ffffffff1681565b60095481565b60035481565b600160009054906101000a900473ffffffffffffffffffffffffffffffffffffffff1673ffffffffffffffffffffffffffffffffffffffff163373ffffffffffffffffffffffffffffffffffffffff16146107e6576040517f08c379a00000000000000000000000000000000000000000000000000000000081526004016107dd906118cb565b60405180910390fd5b60008060009054906101000a900473ffffffffffffffffffffffffffffffffffffffff169050336000806101000a81548173ffffffffffffffffffffffffffffffffffffffff021916908373ffffffffffffffffffffffffffffffffffffffff1602179055506000600160006101000a81548173ffffffffffffffffffffffffffffffffffffffff021916908373ffffffffffffffffffffffffffffffffffffffff1602179055503373ffffffffffffffffffffffffffffffffffffffff168173ffffffffffffffffffffffffffffffffffffffff167f8be0079c531659141344cd1fd0a4f28419497f9722a3daafe3b4186f6b6457e060405160405180910390a350565b600560069054906101000a900463ffffffff1681565b60008060009054906101000a900473ffffffffffffffffffffffffffffffffffffffff16905090565b610932610901565b73ffffffffffffffffffffffffffffffffffffffff163373ffffffffffffffffffffffffffffffffffffffff16141580156109bb5750600260009054906101000a900473ffffffffffffffffffffffffffffffffffffffff1673ffffffffffffffffffffffffffffffffffffffff163373ffffffffffffffffffffffffffffffffffffffff1614155b15610a2a57336109c9610901565b600260009054906101000a900473ffffffffffffffffffffffffffffffffffffffff166040517f061db9c1000000000000000000000000000000000000000000000000000000008152600401610a21939291906118eb565b60405180910390fd5b600073ffffffffffffffffffffffffffffffffffffffff168173ffffffffffffffffffffffffffffffffffffffff1603610a90576040517fd92e233d00000000000000000000000000000000000000000000000000000000815260040160405180910390fd5b80600260006101000a81548173ffffffffffffffffffffffffffffffffffffffff021916908373ffffffffffffffffffffffffffffffffffffffff1602179055507fd1a6a14209a385a964d036e404cb5cfb71f4000cdb03c9366292430787261be681604051610b00919061161a565b60405180910390a150565b600b5481565b600260009054906101000a900473ffffffffffffffffffffffffffffffffffffffff1681565b600560049054906101000a900461ffff1681565b600a60009054906101000a900473ffffffffffffffffffffffffffffffffffffffff1681565b60065481565b6000610b81611094565b600860009054906101000a900460ff16610bd0576040517f08c379a0000000000000000000000000000000000000000000000000000000008152600401610bc79061196e565b60405180910390fd5b600060078054905011610c18576040517f08c379a0000000000000000000000000000000000000000000000000000000008152600401610c0f906119da565b60405180910390fd5b6000600860006101000a81548160ff021916908315150217905550600260009054906101000a900473ffffffffffffffffffffffffffffffffffffffff1673ffffffffffffffffffffffffffffffffffffffff16639b1c385e6040518060c0016040528060035481526020016004548152602001600560049054906101000a900461ffff1661ffff168152602001600560009054906101000a900463ffffffff1663ffffffff168152602001600560069054906101000a900463ffffffff1663ffffffff168152602001610cfc604051806020016040528060001515815250611124565b8152506040518263ffffffff1660e01b8152600401610d1b9190611b4f565b6020604051808303816000875af1158015610d3a573d6000803e3d6000fd5b505050506040513d601f19601f82011682018060405250810190610d5e9190611b86565b905080600981905550807fc161359a588e3e1070fa6d7ada5e72c62b0ad704ccf8053ef8939179b4fbad1060405160405180910390a290565b600047905090565b610da7611094565b610db0816111bc565b50565b60078181548110610dc357600080fd5b906000526020600020016000915054906101000a900473ffffffffffffffffffffffffffffffffffffffff1681565b6009548314610e36576040517f08c379a0000000000000000000000000000000000000000000000000000000008152600401610e2d90611bff565b60405180910390fd5b600860009054906101000a900460ff1615610e86576040517f08c379a0000000000000000000000000000000000000000000000000000000008152600401610e7d90611c6b565b60405180910390fd5b600060078054905083836000818110610ea257610ea1611c8b565b5b90506020020135610eb39190611ce9565b9050600060078281548110610ecb57610eca611c8b565b5b9060005260206000200160009054906101000a900473ffffffffffffffffffffffffffffffffffffffff169050600047905060006064600583610f0e9190611d49565b610f189190611d8b565b905060008183610f289190611dbc565b905083600a60006101000a81548173ffffffffffffffffffffffffffffffffffffffff021916908373ffffffffffffffffffffffffffffffffffffffff16021790555080600b8190555060076000610f8091906112e8565b6001600860006101000a81548160ff0219169083151502179055506000821115610ff357610fac610901565b73ffffffffffffffffffffffffffffffffffffffff166108fc839081150290604051600060405180830381858888f19350505050158015610ff1573d6000803e3d6000fd5b505b8373ffffffffffffffffffffffffffffffffffffffff166108fc829081150290604051600060405180830381858888f19350505050158015611039573d6000803e3d6000fd5b508373ffffffffffffffffffffffffffffffffffffffff167fa67547898330bfcb759cb0f460d13f13ce624befc285a30f961122f2a5badf20828a604051611082929190611df0565b60405180910390a25050505050505050565b60008054906101000a900473ffffffffffffffffffffffffffffffffffffffff1673ffffffffffffffffffffffffffffffffffffffff163373ffffffffffffffffffffffffffffffffffffffff1614611122576040517f08c379a000000000000000000000000000000000000000000000000000000000815260040161111990611e65565b60405180910390fd5b565b60607f92fd13387c7fe7befbc38d303d6468778fb9731bc4583f17d92989c6fcfdeaaa826040516024016111589190611eb0565b604051602081830303815290604052907bffffffffffffffffffffffffffffffffffffffffffffffffffffffff19166020820180517bffffffffffffffffffffffffffffffffffffffffffffffffffffffff83818316178352505050509050919050565b3373ffffffffffffffffffffffffffffffffffffffff168173ffffffffffffffffffffffffffffffffffffffff160361122a576040517f08c379a000000000000000000000000000000000000000000000000000000000815260040161122190611f17565b60405180910390fd5b80600160006101000a81548173ffffffffffffffffffffffffffffffffffffffff021916908373ffffffffffffffffffffffffffffffffffffffff1602179055508073ffffffffffffffffffffffffffffffffffffffff1660008054906101000a900473ffffffffffffffffffffffffffffffffffffffff1673ffffffffffffffffffffffffffffffffffffffff167fed8889f560326eb138920d842192f0eb3dd22b4f139c87a2c57538e05bae127860405160405180910390a350565b50805460008255906000526020600020908101906113069190611309565b50565b5b8082111561132257600081600090555060010161130a565b5090565b600081519050919050565b600082825260208201905092915050565b6000819050602082019050919050565b600073ffffffffffffffffffffffffffffffffffffffff82169050919050565b600061137d82611352565b9050919050565b61138d81611372565b82525050565b600061139f8383611384565b60208301905092915050565b6000602082019050919050565b60006113c382611326565b6113cd8185611331565b93506113d883611342565b8060005b838110156114095781516113f08882611393565b97506113fb836113ab565b9250506001810190506113dc565b5085935050505092915050565b6000602082019050818103600083015261143081846113b8565b905092915050565b6000819050919050565b61144b81611438565b82525050565b60006020820190506114666000830184611442565b92915050565b600080fd5b600080fd5b61147f81611438565b811461148a57600080fd5b50565b60008135905061149c81611476565b92915050565b600080fd5b600080fd5b600080fd5b60008083601f8401126114c7576114c66114a2565b5b8235905067ffffffffffffffff8111156114e4576114e36114a7565b5b602083019150836020820283011115611500576114ff6114ac565b5b9250929050565b6000806000604084860312156115205761151f61146c565b5b600061152e8682870161148d565b935050602084013567ffffffffffffffff81111561154f5761154e611471565b5b61155b868287016114b1565b92509250509250925092565b60008115159050919050565b61157c81611567565b82525050565b60006020820190506115976000830184611573565b92915050565b600063ffffffff82169050919050565b6115b68161159d565b82525050565b60006020820190506115d160008301846115ad565b92915050565b6000819050919050565b6115ea816115d7565b82525050565b600060208201905061160560008301846115e1565b92915050565b61161481611372565b82525050565b600060208201905061162f600083018461160b565b92915050565b61163e81611372565b811461164957600080fd5b50565b60008135905061165b81611635565b92915050565b6000602082840312156116775761167661146c565b5b60006116858482850161164c565b91505092915050565b6000819050919050565b60006116b36116ae6116a984611352565b61168e565b611352565b9050919050565b60006116c582611698565b9050919050565b60006116d7826116ba565b9050919050565b6116e7816116cc565b82525050565b600060208201905061170260008301846116de565b92915050565b600061ffff82169050919050565b61171f81611708565b82525050565b600060208201905061173a6000830184611716565b92915050565b6000602082840312156117565761175561146c565b5b60006117648482850161148d565b91505092915050565b600082825260208201905092915050565b7f536f727465696f206665636861646f0000000000000000000000000000000000600082015250565b60006117b4600f8361176d565b91506117bf8261177e565b602082019050919050565b600060208201905081810360008301526117e3816117a7565b9050919050565b7f56616c6f7220696e636f727265746f0000000000000000000000000000000000600082015250565b6000611820600f8361176d565b915061182b826117ea565b602082019050919050565b6000602082019050818103600083015261184f81611813565b9050919050565b600060408201905061186b600083018561160b565b611878602083018461160b565b9392505050565b7f4d7573742062652070726f706f736564206f776e657200000000000000000000600082015250565b60006118b560168361176d565b91506118c08261187f565b602082019050919050565b600060208201905081810360008301526118e4816118a8565b9050919050565b6000606082019050611900600083018661160b565b61190d602083018561160b565b61191a604083018461160b565b949350505050565b7f536f727465696f206a61206665636861646f0000000000000000000000000000600082015250565b600061195860128361176d565b915061196382611922565b602082019050919050565b600060208201905081810360008301526119878161194b565b9050919050565b7f4e656e68756d206a6f6761646f72000000000000000000000000000000000000600082015250565b60006119c4600e8361176d565b91506119cf8261198e565b602082019050919050565b600060208201905081810360008301526119f3816119b7565b9050919050565b611a03816115d7565b82525050565b611a1281611438565b82525050565b611a2181611708565b82525050565b611a308161159d565b82525050565b600081519050919050565b600082825260208201905092915050565b60005b83811015611a70578082015181840152602081019050611a55565b60008484015250505050565b6000601f19601f8301169050919050565b6000611a9882611a36565b611aa28185611a41565b9350611ab2818560208601611a52565b611abb81611a7c565b840191505092915050565b600060c083016000830151611ade60008601826119fa565b506020830151611af16020860182611a09565b506040830151611b046040860182611a18565b506060830151611b176060860182611a27565b506080830151611b2a6080860182611a27565b5060a083015184820360a0860152611b428282611a8d565b9150508091505092915050565b60006020820190508181036000830152611b698184611ac6565b905092915050565b600081519050611b8081611476565b92915050565b600060208284031215611b9c57611b9b61146c565b5b6000611baa84828501611b71565b91505092915050565b7f496420696e76616c69646f000000000000000000000000000000000000000000600082015250565b6000611be9600b8361176d565b9150611bf482611bb3565b602082019050919050565b60006020820190508181036000830152611c1881611bdc565b9050919050565b7f536f727465696f206e616f2065737461206665636861646f0000000000000000600082015250565b6000611c5560188361176d565b9150611c6082611c1f565b602082019050919050565b60006020820190508181036000830152611c8481611c48565b9050919050565b7f4e487b7100000000000000000000000000000000000000000000000000000000600052603260045260246000fd5b7f4e487b7100000000000000000000000000000000000000000000000000000000600052601260045260246000fd5b6000611cf482611438565b9150611cff83611438565b925082611d0f57611d0e611cba565b5b828206905092915050565b7f4e487b7100000000000000000000000000000000000000000000000000000000600052601160045260246000fd5b6000611d5482611438565b9150611d5f83611438565b9250828202611d6d81611438565b91508282048414831517611d8457611d83611d1a565b5b5092915050565b6000611d9682611438565b9150611da183611438565b925082611db157611db0611cba565b5b828204905092915050565b6000611dc782611438565b9150611dd283611438565b9250828203905081811115611dea57611de9611d1a565b5b92915050565b6000604082019050611e056000830185611442565b611e126020830184611442565b9392505050565b7f4f6e6c792063616c6c61626c65206279206f776e657200000000000000000000600082015250565b6000611e4f60168361176d565b9150611e5a82611e19565b602082019050919050565b60006020820190508181036000830152611e7e81611e42565b9050919050565b611e8e81611567565b82525050565b602082016000820151611eaa6000850182611e85565b50505050565b6000602082019050611ec56000830184611e94565b92915050565b7f43616e6e6f74207472616e7366657220746f2073656c66000000000000000000600082015250565b6000611f0160178361176d565b9150611f0c82611ecb565b602082019050919050565b60006020820190508181036000830152611f3081611ef4565b905091905056fea264697066735822122099c3e25a2f5498a34bc28270c4994183876b040e4501b8b9488697d03791fb8b64736f6c63430008130033",
  "linkReferences": {},
  "deployedLinkReferences": {}
}